{
  "address": "0x44bA6348A3b87f190D3dEE79972Cf9B205A345aB",
  "abi": [
    {
      "inputs": [
        {
          "internalType": "string",
          "name": "name",
          "type": "string"
        },
        {
          "internalType": "string",
          "name": "symbol",
          "type": "string"
        }
      ],
      "stateMutability": "nonpayable",
      "type": "constructor"
    },
    {
      "anonymous": false,
      "inputs": [
        {
          "indexed": true,
          "internalType": "address",
          "name": "owner",
          "type": "address"
        },
        {
          "indexed": true,
          "internalType": "address",
          "name": "approved",
          "type": "address"
        },
        {
          "indexed": true,
          "internalType": "uint256",
          "name": "tokenId",
          "type": "uint256"
        }
      ],
      "name": "Approval",
      "type": "event"
    },
    {
      "anonymous": false,
      "inputs": [
        {
          "indexed": true,
          "internalType": "address",
          "name": "owner",
          "type": "address"
        },
        {
          "indexed": true,
          "internalType": "address",
          "name": "operator",
          "type": "address"
        },
        {
          "indexed": false,
          "internalType": "bool",
          "name": "approved",
          "type": "bool"
        }
      ],
      "name": "ApprovalForAll",
      "type": "event"
    },
    {
      "anonymous": false,
      "inputs": [
        {
          "indexed": true,
          "internalType": "address",
          "name": "from",
          "type": "address"
        },
        {
          "indexed": true,
          "internalType": "address",
          "name": "to",
          "type": "address"
        },
        {
          "indexed": true,
          "internalType": "uint256",
          "name": "tokenId",
          "type": "uint256"
        }
      ],
      "name": "Transfer",
      "type": "event"
    },
    {
      "inputs": [
        {
          "internalType": "address",
          "name": "to",
          "type": "address"
        },
        {
          "internalType": "uint256",
          "name": "tokenId",
          "type": "uint256"
        }
      ],
      "name": "approve",
      "outputs": [],
      "stateMutability": "nonpayable",
      "type": "function"
    },
    {
      "inputs": [
        {
          "internalType": "address",
          "name": "owner",
          "type": "address"
        }
      ],
      "name": "balanceOf",
      "outputs": [
        {
          "internalType": "uint256",
          "name": "",
          "type": "uint256"
        }
      ],
      "stateMutability": "view",
      "type": "function"
    },
    {
      "inputs": [
        {
          "internalType": "address",
          "name": "_claimer",
          "type": "address"
        },
        {
          "internalType": "string",
          "name": "_tokenURI",
          "type": "string"
        }
      ],
      "name": "claimToken",
      "outputs": [
        {
          "internalType": "uint256",
          "name": "",
          "type": "uint256"
        }
      ],
      "stateMutability": "nonpayable",
      "type": "function"
    },
    {
      "inputs": [
        {
          "internalType": "uint256",
          "name": "",
          "type": "uint256"
        },
        {
          "internalType": "address",
          "name": "",
          "type": "address"
        }
      ],
      "name": "dislikes",
      "outputs": [
        {
          "internalType": "bool",
          "name": "",
          "type": "bool"
        }
      ],
      "stateMutability": "view",
      "type": "function"
    },
    {
      "inputs": [
        {
          "internalType": "uint256",
          "name": "tokenId",
          "type": "uint256"
        }
      ],
      "name": "getApproved",
      "outputs": [
        {
          "internalType": "address",
          "name": "",
          "type": "address"
        }
      ],
      "stateMutability": "view",
      "type": "function"
    },
    {
      "inputs": [
        {
          "internalType": "address",
          "name": "owner",
          "type": "address"
        },
        {
          "internalType": "address",
          "name": "operator",
          "type": "address"
        }
      ],
      "name": "isApprovedForAll",
      "outputs": [
        {
          "internalType": "bool",
          "name": "",
          "type": "bool"
        }
      ],
      "stateMutability": "view",
      "type": "function"
    },
    {
      "inputs": [
        {
          "internalType": "uint256",
          "name": "",
          "type": "uint256"
        },
        {
          "internalType": "address",
          "name": "",
          "type": "address"
        }
      ],
      "name": "likes",
      "outputs": [
        {
          "internalType": "bool",
          "name": "",
          "type": "bool"
        }
      ],
      "stateMutability": "view",
      "type": "function"
    },
    {
      "inputs": [],
      "name": "name",
      "outputs": [
        {
          "internalType": "string",
          "name": "",
          "type": "string"
        }
      ],
      "stateMutability": "view",
      "type": "function"
    },
    {
      "inputs": [
        {
          "internalType": "uint256",
          "name": "tokenId",
          "type": "uint256"
        }
      ],
      "name": "ownerOf",
      "outputs": [
        {
          "internalType": "address",
          "name": "",
          "type": "address"
        }
      ],
      "stateMutability": "view",
      "type": "function"
    },
    {
      "inputs": [
        {
          "internalType": "address",
          "name": "from",
          "type": "address"
        },
        {
          "internalType": "address",
          "name": "to",
          "type": "address"
        },
        {
          "internalType": "uint256",
          "name": "tokenId",
          "type": "uint256"
        }
      ],
      "name": "safeTransferFrom",
      "outputs": [],
      "stateMutability": "nonpayable",
      "type": "function"
    },
    {
      "inputs": [
        {
          "internalType": "address",
          "name": "from",
          "type": "address"
        },
        {
          "internalType": "address",
          "name": "to",
          "type": "address"
        },
        {
          "internalType": "uint256",
          "name": "tokenId",
          "type": "uint256"
        },
        {
          "internalType": "bytes",
          "name": "_data",
          "type": "bytes"
        }
      ],
      "name": "safeTransferFrom",
      "outputs": [],
      "stateMutability": "nonpayable",
      "type": "function"
    },
    {
      "inputs": [
        {
          "internalType": "address",
          "name": "operator",
          "type": "address"
        },
        {
          "internalType": "bool",
          "name": "approved",
          "type": "bool"
        }
      ],
      "name": "setApprovalForAll",
      "outputs": [],
      "stateMutability": "nonpayable",
      "type": "function"
    },
    {
      "inputs": [
        {
          "internalType": "bytes4",
          "name": "interfaceId",
          "type": "bytes4"
        }
      ],
      "name": "supportsInterface",
      "outputs": [
        {
          "internalType": "bool",
          "name": "",
          "type": "bool"
        }
      ],
      "stateMutability": "view",
      "type": "function"
    },
    {
      "inputs": [],
      "name": "symbol",
      "outputs": [
        {
          "internalType": "string",
          "name": "",
          "type": "string"
        }
      ],
      "stateMutability": "view",
      "type": "function"
    },
    {
      "inputs": [
        {
          "internalType": "uint256",
          "name": "tokenId",
          "type": "uint256"
        },
        {
          "internalType": "bool",
          "name": "value",
          "type": "bool"
        }
      ],
      "name": "toggleDislike",
      "outputs": [],
      "stateMutability": "nonpayable",
      "type": "function"
    },
    {
      "inputs": [
        {
          "internalType": "uint256",
          "name": "tokenId",
          "type": "uint256"
        },
        {
          "internalType": "bool",
          "name": "value",
          "type": "bool"
        }
      ],
      "name": "toggleLike",
      "outputs": [],
      "stateMutability": "nonpayable",
      "type": "function"
    },
    {
      "inputs": [
        {
          "internalType": "uint256",
          "name": "",
          "type": "uint256"
        }
      ],
      "name": "tokenStatistics",
      "outputs": [
        {
          "internalType": "uint256",
          "name": "likes",
          "type": "uint256"
        },
        {
          "internalType": "uint256",
          "name": "dislikes",
          "type": "uint256"
        }
      ],
      "stateMutability": "view",
      "type": "function"
    },
    {
      "inputs": [
        {
          "internalType": "uint256",
          "name": "tokenId",
          "type": "uint256"
        }
      ],
      "name": "tokenURI",
      "outputs": [
        {
          "internalType": "string",
          "name": "",
          "type": "string"
        }
      ],
      "stateMutability": "view",
      "type": "function"
    },
    {
      "inputs": [],
      "name": "totalSupply",
      "outputs": [
        {
          "internalType": "uint256",
          "name": "",
          "type": "uint256"
        }
      ],
      "stateMutability": "view",
      "type": "function"
    },
    {
      "inputs": [
        {
          "internalType": "address",
          "name": "from",
          "type": "address"
        },
        {
          "internalType": "address",
          "name": "to",
          "type": "address"
        },
        {
          "internalType": "uint256",
          "name": "tokenId",
          "type": "uint256"
        }
      ],
      "name": "transferFrom",
      "outputs": [],
      "stateMutability": "nonpayable",
      "type": "function"
    }
  ],
  "transactionHash": "0xe7a6c4d5fbd714a8a5b5c18375211c216ab2a7d1fbfa69d9c264a325477f04af",
  "args": [
    "MetisTube",
    "TUBE"
  ],
  "solcInputHash": "f0d179a80b9912151b5a9177dae17c78",
  "bytecode": "0x60806040523480156200001157600080fd5b5060405162002f6038038062002f60833981810160405281019062000037919062000197565b818181600090805190602001906200005192919062000075565b5080600190805190602001906200006a92919062000075565b50505050506200037a565b82805462000083906200029f565b90600052602060002090601f016020900481019282620000a75760008555620000f3565b82601f10620000c257805160ff1916838001178555620000f3565b82800160010185558215620000f3579182015b82811115620000f2578251825591602001919060010190620000d5565b5b50905062000102919062000106565b5090565b5b808211156200012157600081600090555060010162000107565b5090565b60006200013c620001368462000233565b6200020a565b9050828152602081018484840111156200015557600080fd5b6200016284828562000269565b509392505050565b600082601f8301126200017c57600080fd5b81516200018e84826020860162000125565b91505092915050565b60008060408385031215620001ab57600080fd5b600083015167ffffffffffffffff811115620001c657600080fd5b620001d4858286016200016a565b925050602083015167ffffffffffffffff811115620001f257600080fd5b62000200858286016200016a565b9150509250929050565b60006200021662000229565b9050620002248282620002d5565b919050565b6000604051905090565b600067ffffffffffffffff8211156200025157620002506200033a565b5b6200025c8262000369565b9050602081019050919050565b60005b83811015620002895780820151818401526020810190506200026c565b8381111562000299576000848401525b50505050565b60006002820490506001821680620002b857607f821691505b60208210811415620002cf57620002ce6200030b565b5b50919050565b620002e08262000369565b810181811067ffffffffffffffff821117156200030257620003016200033a565b5b80604052505050565b7f4e487b7100000000000000000000000000000000000000000000000000000000600052602260045260246000fd5b7f4e487b7100000000000000000000000000000000000000000000000000000000600052604160045260246000fd5b6000601f19601f8301169050919050565b612bd6806200038a6000396000f3fe608060405234801561001057600080fd5b506004361061012c5760003560e01c80635c12c077116100ad578063a22cb46511610071578063a22cb4651461037c578063b88d4fde14610398578063c87b56dd146103b4578063e985e9c5146103e4578063f3eb744e146104145761012c565b80635c12c0771461029e5780636352211e146102ce57806370a08231146102fe578063931b33851461032e57806395d89b411461035e5761012c565b806323b872dd116100f457806323b872dd146101e957806342842e0e1461020557806348cf4d89146102215780634bf9bf7d1461025157806355cebd821461026d5761012c565b806301ffc9a71461013157806306fdde0314610161578063081812fc1461017f578063095ea7b3146101af57806318160ddd146101cb575b600080fd5b61014b60048036038101906101469190611d65565b610430565b604051610158919061216b565b60405180910390f35b610169610512565b6040516101769190612186565b60405180910390f35b61019960048036038101906101949190611db7565b6105a4565b6040516101a69190612104565b60405180910390f35b6101c960048036038101906101c49190611d29565b610629565b005b6101d3610741565b6040516101e09190612388565b60405180910390f35b61020360048036038101906101fe9190611bcf565b61074b565b005b61021f600480360381019061021a9190611bcf565b6107ab565b005b61023b60048036038101906102369190611de0565b6107cb565b604051610248919061216b565b60405180910390f35b61026b60048036038101906102669190611e1c565b6107fa565b005b61028760048036038101906102829190611db7565b61093c565b6040516102959291906123a3565b60405180910390f35b6102b860048036038101906102b39190611de0565b610960565b6040516102c5919061216b565b60405180910390f35b6102e860048036038101906102e39190611db7565b61098f565b6040516102f59190612104565b60405180910390f35b61031860048036038101906103139190611b6a565b610a41565b6040516103259190612388565b60405180910390f35b61034860048036038101906103439190611cd5565b610af9565b6040516103559190612388565b60405180910390f35b610366610b36565b6040516103739190612186565b60405180910390f35b61039660048036038101906103919190611c99565b610bc8565b005b6103b260048036038101906103ad9190611c1e565b610bde565b005b6103ce60048036038101906103c99190611db7565b610c40565b6040516103db9190612186565b60405180910390f35b6103fe60048036038101906103f99190611b93565b610d2d565b60405161040b919061216b565b60405180910390f35b61042e60048036038101906104299190611e1c565b610dc1565b005b60007f80ac58cd000000000000000000000000000000000000000000000000000000007bffffffffffffffffffffffffffffffffffffffffffffffffffffffff1916827bffffffffffffffffffffffffffffffffffffffffffffffffffffffff191614806104fb57507f5b5e139f000000000000000000000000000000000000000000000000000000007bffffffffffffffffffffffffffffffffffffffffffffffffffffffff1916827bffffffffffffffffffffffffffffffffffffffffffffffffffffffff1916145b8061050b575061050a82610f03565b5b9050919050565b606060008054610521906125cb565b80601f016020809104026020016040519081016040528092919081815260200182805461054d906125cb565b801561059a5780601f1061056f5761010080835404028352916020019161059a565b820191906000526020600020905b81548152906001019060200180831161057d57829003601f168201915b5050505050905090565b60006105af82610f6d565b6105ee576040517f08c379a00000000000000000000000000000000000000000000000000000000081526004016105e5906122c8565b60405180910390fd5b6004600083815260200190815260200160002060009054906101000a900473ffffffffffffffffffffffffffffffffffffffff169050919050565b60006106348261098f565b90508073ffffffffffffffffffffffffffffffffffffffff168373ffffffffffffffffffffffffffffffffffffffff1614156106a5576040517f08c379a000000000000000000000000000000000000000000000000000000000815260040161069c90612348565b60405180910390fd5b8073ffffffffffffffffffffffffffffffffffffffff166106c4610fd9565b73ffffffffffffffffffffffffffffffffffffffff1614806106f357506106f2816106ed610fd9565b610d2d565b5b610732576040517f08c379a000000000000000000000000000000000000000000000000000000000815260040161072990612248565b60405180910390fd5b61073c8383610fe1565b505050565b6000600654905090565b61075c610756610fd9565b8261109a565b61079b576040517f08c379a000000000000000000000000000000000000000000000000000000000815260040161079290612368565b60405180910390fd5b6107a6838383611178565b505050565b6107c683838360405180602001604052806000815250610bde565b505050565b600a6020528160005260406000206020528060005260406000206000915091509054906101000a900460ff1681565b801515600a600084815260200190815260200160002060003373ffffffffffffffffffffffffffffffffffffffff1673ffffffffffffffffffffffffffffffffffffffff16815260200190815260200160002060009054906101000a900460ff161515141561086857600080fd5b80600a600084815260200190815260200160002060003373ffffffffffffffffffffffffffffffffffffffff1673ffffffffffffffffffffffffffffffffffffffff16815260200190815260200160002060006101000a81548160ff02191690831515021790555080156109095760016008600084815260200190815260200160002060010160008282546108fd919061248b565b92505081905550610938565b600160086000848152602001908152602001600020600101600082825461093091906124e1565b925050819055505b5050565b60086020528060005260406000206000915090508060000154908060010154905082565b60096020528160005260406000206020528060005260406000206000915091509054906101000a900460ff1681565b6000806002600084815260200190815260200160002060009054906101000a900473ffffffffffffffffffffffffffffffffffffffff169050600073ffffffffffffffffffffffffffffffffffffffff168173ffffffffffffffffffffffffffffffffffffffff161415610a38576040517f08c379a0000000000000000000000000000000000000000000000000000000008152600401610a2f90612288565b60405180910390fd5b80915050919050565b60008073ffffffffffffffffffffffffffffffffffffffff168273ffffffffffffffffffffffffffffffffffffffff161415610ab2576040517f08c379a0000000000000000000000000000000000000000000000000000000008152600401610aa990612268565b60405180910390fd5b600360008373ffffffffffffffffffffffffffffffffffffffff1673ffffffffffffffffffffffffffffffffffffffff168152602001908152602001600020549050919050565b6000610b07836006546113d4565b610b13600654836115a2565b60066000815480929190610b269061262e565b9190505550600654905092915050565b606060018054610b45906125cb565b80601f0160208091040260200160405190810160405280929190818152602001828054610b71906125cb565b8015610bbe5780601f10610b9357610100808354040283529160200191610bbe565b820191906000526020600020905b815481529060010190602001808311610ba157829003601f168201915b5050505050905090565b610bda610bd3610fd9565b8383611616565b5050565b610bef610be9610fd9565b8361109a565b610c2e576040517f08c379a0000000000000000000000000000000000000000000000000000000008152600401610c2590612368565b60405180910390fd5b610c3a84848484611783565b50505050565b6060610c4b82610f6d565b610c8a576040517f08c379a0000000000000000000000000000000000000000000000000000000008152600401610c8190612328565b60405180910390fd5b600760008381526020019081526020016000208054610ca8906125cb565b80601f0160208091040260200160405190810160405280929190818152602001828054610cd4906125cb565b8015610d215780601f10610cf657610100808354040283529160200191610d21565b820191906000526020600020905b815481529060010190602001808311610d0457829003601f168201915b50505050509050919050565b6000600560008473ffffffffffffffffffffffffffffffffffffffff1673ffffffffffffffffffffffffffffffffffffffff16815260200190815260200160002060008373ffffffffffffffffffffffffffffffffffffffff1673ffffffffffffffffffffffffffffffffffffffff16815260200190815260200160002060009054906101000a900460ff16905092915050565b8015156009600084815260200190815260200160002060003373ffffffffffffffffffffffffffffffffffffffff1673ffffffffffffffffffffffffffffffffffffffff16815260200190815260200160002060009054906101000a900460ff1615151415610e2f57600080fd5b806009600084815260200190815260200160002060003373ffffffffffffffffffffffffffffffffffffffff1673ffffffffffffffffffffffffffffffffffffffff16815260200190815260200160002060006101000a81548160ff0219169083151502179055508015610ed0576001600860008481526020019081526020016000206000016000828254610ec4919061248b565b92505081905550610eff565b6001600860008481526020019081526020016000206000016000828254610ef791906124e1565b925050819055505b5050565b60007f01ffc9a7000000000000000000000000000000000000000000000000000000007bffffffffffffffffffffffffffffffffffffffffffffffffffffffff1916827bffffffffffffffffffffffffffffffffffffffffffffffffffffffff1916149050919050565b60008073ffffffffffffffffffffffffffffffffffffffff166002600084815260200190815260200160002060009054906101000a900473ffffffffffffffffffffffffffffffffffffffff1673ffffffffffffffffffffffffffffffffffffffff1614159050919050565b600033905090565b816004600083815260200190815260200160002060006101000a81548173ffffffffffffffffffffffffffffffffffffffff021916908373ffffffffffffffffffffffffffffffffffffffff160217905550808273ffffffffffffffffffffffffffffffffffffffff166110548361098f565b73ffffffffffffffffffffffffffffffffffffffff167f8c5be1e5ebec7d5bd14f71427d1e84f3dd0314c0f7b2291e5b200ac8c7c3b92560405160405180910390a45050565b60006110a582610f6d565b6110e4576040517f08c379a00000000000000000000000000000000000000000000000000000000081526004016110db90612228565b60405180910390fd5b60006110ef8361098f565b90508073ffffffffffffffffffffffffffffffffffffffff168473ffffffffffffffffffffffffffffffffffffffff16148061115e57508373ffffffffffffffffffffffffffffffffffffffff16611146846105a4565b73ffffffffffffffffffffffffffffffffffffffff16145b8061116f575061116e8185610d2d565b5b91505092915050565b8273ffffffffffffffffffffffffffffffffffffffff166111988261098f565b73ffffffffffffffffffffffffffffffffffffffff16146111ee576040517f08c379a00000000000000000000000000000000000000000000000000000000081526004016111e590612308565b60405180910390fd5b600073ffffffffffffffffffffffffffffffffffffffff168273ffffffffffffffffffffffffffffffffffffffff16141561125e576040517f08c379a0000000000000000000000000000000000000000000000000000000008152600401611255906121e8565b60405180910390fd5b6112698383836117df565b611274600082610fe1565b6001600360008573ffffffffffffffffffffffffffffffffffffffff1673ffffffffffffffffffffffffffffffffffffffff16815260200190815260200160002060008282546112c491906124e1565b925050819055506001600360008473ffffffffffffffffffffffffffffffffffffffff1673ffffffffffffffffffffffffffffffffffffffff168152602001908152602001600020600082825461131b919061248b565b92505081905550816002600083815260200190815260200160002060006101000a81548173ffffffffffffffffffffffffffffffffffffffff021916908373ffffffffffffffffffffffffffffffffffffffff160217905550808273ffffffffffffffffffffffffffffffffffffffff168473ffffffffffffffffffffffffffffffffffffffff167fddf252ad1be2c89b69c2b068fc378daa952ba7f163c4a11628f55a4df523b3ef60405160405180910390a4505050565b600073ffffffffffffffffffffffffffffffffffffffff168273ffffffffffffffffffffffffffffffffffffffff161415611444576040517f08c379a000000000000000000000000000000000000000000000000000000000815260040161143b906122a8565b60405180910390fd5b61144d81610f6d565b1561148d576040517f08c379a0000000000000000000000000000000000000000000000000000000008152600401611484906121c8565b60405180910390fd5b611499600083836117df565b6001600360008473ffffffffffffffffffffffffffffffffffffffff1673ffffffffffffffffffffffffffffffffffffffff16815260200190815260200160002060008282546114e9919061248b565b92505081905550816002600083815260200190815260200160002060006101000a81548173ffffffffffffffffffffffffffffffffffffffff021916908373ffffffffffffffffffffffffffffffffffffffff160217905550808273ffffffffffffffffffffffffffffffffffffffff16600073ffffffffffffffffffffffffffffffffffffffff167fddf252ad1be2c89b69c2b068fc378daa952ba7f163c4a11628f55a4df523b3ef60405160405180910390a45050565b6115ab82610f6d565b6115ea576040517f08c379a00000000000000000000000000000000000000000000000000000000081526004016115e1906122e8565b60405180910390fd5b8060076000848152602001908152602001600020908051906020019061161192919061198e565b505050565b8173ffffffffffffffffffffffffffffffffffffffff168373ffffffffffffffffffffffffffffffffffffffff161415611685576040517f08c379a000000000000000000000000000000000000000000000000000000000815260040161167c90612208565b60405180910390fd5b80600560008573ffffffffffffffffffffffffffffffffffffffff1673ffffffffffffffffffffffffffffffffffffffff16815260200190815260200160002060008473ffffffffffffffffffffffffffffffffffffffff1673ffffffffffffffffffffffffffffffffffffffff16815260200190815260200160002060006101000a81548160ff0219169083151502179055508173ffffffffffffffffffffffffffffffffffffffff168373ffffffffffffffffffffffffffffffffffffffff167f17307eab39ab6107e8899845ad3d59bd9653f200f220920489ca2b5937696c3183604051611776919061216b565b60405180910390a3505050565b61178e848484611178565b61179a848484846117e4565b6117d9576040517f08c379a00000000000000000000000000000000000000000000000000000000081526004016117d0906121a8565b60405180910390fd5b50505050565b505050565b60006118058473ffffffffffffffffffffffffffffffffffffffff1661197b565b1561196e578373ffffffffffffffffffffffffffffffffffffffff1663150b7a0261182e610fd9565b8786866040518563ffffffff1660e01b8152600401611850949392919061211f565b602060405180830381600087803b15801561186a57600080fd5b505af192505050801561189b57506040513d601f19601f820116820180604052508101906118989190611d8e565b60015b61191e573d80600081146118cb576040519150601f19603f3d011682016040523d82523d6000602084013e6118d0565b606091505b50600081511415611916576040517f08c379a000000000000000000000000000000000000000000000000000000000815260040161190d906121a8565b60405180910390fd5b805181602001fd5b63150b7a0260e01b7bffffffffffffffffffffffffffffffffffffffffffffffffffffffff1916817bffffffffffffffffffffffffffffffffffffffffffffffffffffffff191614915050611973565b600190505b949350505050565b600080823b905060008111915050919050565b82805461199a906125cb565b90600052602060002090601f0160209004810192826119bc5760008555611a03565b82601f106119d557805160ff1916838001178555611a03565b82800160010185558215611a03579182015b82811115611a025782518255916020019190600101906119e7565b5b509050611a109190611a14565b5090565b5b80821115611a2d576000816000905550600101611a15565b5090565b6000611a44611a3f846123f1565b6123cc565b905082815260208101848484011115611a5c57600080fd5b611a67848285612589565b509392505050565b6000611a82611a7d84612422565b6123cc565b905082815260208101848484011115611a9a57600080fd5b611aa5848285612589565b509392505050565b600081359050611abc81612b44565b92915050565b600081359050611ad181612b5b565b92915050565b600081359050611ae681612b72565b92915050565b600081519050611afb81612b72565b92915050565b600082601f830112611b1257600080fd5b8135611b22848260208601611a31565b91505092915050565b600082601f830112611b3c57600080fd5b8135611b4c848260208601611a6f565b91505092915050565b600081359050611b6481612b89565b92915050565b600060208284031215611b7c57600080fd5b6000611b8a84828501611aad565b91505092915050565b60008060408385031215611ba657600080fd5b6000611bb485828601611aad565b9250506020611bc585828601611aad565b9150509250929050565b600080600060608486031215611be457600080fd5b6000611bf286828701611aad565b9350506020611c0386828701611aad565b9250506040611c1486828701611b55565b9150509250925092565b60008060008060808587031215611c3457600080fd5b6000611c4287828801611aad565b9450506020611c5387828801611aad565b9350506040611c6487828801611b55565b925050606085013567ffffffffffffffff811115611c8157600080fd5b611c8d87828801611b01565b91505092959194509250565b60008060408385031215611cac57600080fd5b6000611cba85828601611aad565b9250506020611ccb85828601611ac2565b9150509250929050565b60008060408385031215611ce857600080fd5b6000611cf685828601611aad565b925050602083013567ffffffffffffffff811115611d1357600080fd5b611d1f85828601611b2b565b9150509250929050565b60008060408385031215611d3c57600080fd5b6000611d4a85828601611aad565b9250506020611d5b85828601611b55565b9150509250929050565b600060208284031215611d7757600080fd5b6000611d8584828501611ad7565b91505092915050565b600060208284031215611da057600080fd5b6000611dae84828501611aec565b91505092915050565b600060208284031215611dc957600080fd5b6000611dd784828501611b55565b91505092915050565b60008060408385031215611df357600080fd5b6000611e0185828601611b55565b9250506020611e1285828601611aad565b9150509250929050565b60008060408385031215611e2f57600080fd5b6000611e3d85828601611b55565b9250506020611e4e85828601611ac2565b9150509250929050565b611e6181612515565b82525050565b611e7081612527565b82525050565b6000611e8182612453565b611e8b8185612469565b9350611e9b818560208601612598565b611ea481612704565b840191505092915050565b6000611eba8261245e565b611ec4818561247a565b9350611ed4818560208601612598565b611edd81612704565b840191505092915050565b6000611ef560328361247a565b9150611f0082612715565b604082019050919050565b6000611f18601c8361247a565b9150611f2382612764565b602082019050919050565b6000611f3b60248361247a565b9150611f468261278d565b604082019050919050565b6000611f5e60198361247a565b9150611f69826127dc565b602082019050919050565b6000611f81602c8361247a565b9150611f8c82612805565b604082019050919050565b6000611fa460388361247a565b9150611faf82612854565b604082019050919050565b6000611fc7602a8361247a565b9150611fd2826128a3565b604082019050919050565b6000611fea60298361247a565b9150611ff5826128f2565b604082019050919050565b600061200d60208361247a565b915061201882612941565b602082019050919050565b6000612030602c8361247a565b915061203b8261296a565b604082019050919050565b6000612053602c8361247a565b915061205e826129b9565b604082019050919050565b600061207660298361247a565b915061208182612a08565b604082019050919050565b6000612099602f8361247a565b91506120a482612a57565b604082019050919050565b60006120bc60218361247a565b91506120c782612aa6565b604082019050919050565b60006120df60318361247a565b91506120ea82612af5565b604082019050919050565b6120fe8161257f565b82525050565b60006020820190506121196000830184611e58565b92915050565b60006080820190506121346000830187611e58565b6121416020830186611e58565b61214e60408301856120f5565b81810360608301526121608184611e76565b905095945050505050565b60006020820190506121806000830184611e67565b92915050565b600060208201905081810360008301526121a08184611eaf565b905092915050565b600060208201905081810360008301526121c181611ee8565b9050919050565b600060208201905081810360008301526121e181611f0b565b9050919050565b6000602082019050818103600083015261220181611f2e565b9050919050565b6000602082019050818103600083015261222181611f51565b9050919050565b6000602082019050818103600083015261224181611f74565b9050919050565b6000602082019050818103600083015261226181611f97565b9050919050565b6000602082019050818103600083015261228181611fba565b9050919050565b600060208201905081810360008301526122a181611fdd565b9050919050565b600060208201905081810360008301526122c181612000565b9050919050565b600060208201905081810360008301526122e181612023565b9050919050565b6000602082019050818103600083015261230181612046565b9050919050565b6000602082019050818103600083015261232181612069565b9050919050565b600060208201905081810360008301526123418161208c565b9050919050565b60006020820190508181036000830152612361816120af565b9050919050565b60006020820190508181036000830152612381816120d2565b9050919050565b600060208201905061239d60008301846120f5565b92915050565b60006040820190506123b860008301856120f5565b6123c560208301846120f5565b9392505050565b60006123d66123e7565b90506123e282826125fd565b919050565b6000604051905090565b600067ffffffffffffffff82111561240c5761240b6126d5565b5b61241582612704565b9050602081019050919050565b600067ffffffffffffffff82111561243d5761243c6126d5565b5b61244682612704565b9050602081019050919050565b600081519050919050565b600081519050919050565b600082825260208201905092915050565b600082825260208201905092915050565b60006124968261257f565b91506124a18361257f565b9250827fffffffffffffffffffffffffffffffffffffffffffffffffffffffffffffffff038211156124d6576124d5612677565b5b828201905092915050565b60006124ec8261257f565b91506124f78361257f565b92508282101561250a57612509612677565b5b828203905092915050565b60006125208261255f565b9050919050565b60008115159050919050565b60007fffffffff0000000000000000000000000000000000000000000000000000000082169050919050565b600073ffffffffffffffffffffffffffffffffffffffff82169050919050565b6000819050919050565b82818337600083830152505050565b60005b838110156125b657808201518184015260208101905061259b565b838111156125c5576000848401525b50505050565b600060028204905060018216806125e357607f821691505b602082108114156125f7576125f66126a6565b5b50919050565b61260682612704565b810181811067ffffffffffffffff82111715612625576126246126d5565b5b80604052505050565b60006126398261257f565b91507fffffffffffffffffffffffffffffffffffffffffffffffffffffffffffffffff82141561266c5761266b612677565b5b600182019050919050565b7f4e487b7100000000000000000000000000000000000000000000000000000000600052601160045260246000fd5b7f4e487b7100000000000000000000000000000000000000000000000000000000600052602260045260246000fd5b7f4e487b7100000000000000000000000000000000000000000000000000000000600052604160045260246000fd5b6000601f19601f8301169050919050565b7f4552433732313a207472616e7366657220746f206e6f6e20455243373231526560008201527f63656976657220696d706c656d656e7465720000000000000000000000000000602082015250565b7f4552433732313a20746f6b656e20616c7265616479206d696e74656400000000600082015250565b7f4552433732313a207472616e7366657220746f20746865207a65726f2061646460008201527f7265737300000000000000000000000000000000000000000000000000000000602082015250565b7f4552433732313a20617070726f766520746f2063616c6c657200000000000000600082015250565b7f4552433732313a206f70657261746f7220717565727920666f72206e6f6e657860008201527f697374656e7420746f6b656e0000000000000000000000000000000000000000602082015250565b7f4552433732313a20617070726f76652063616c6c6572206973206e6f74206f7760008201527f6e6572206e6f7220617070726f76656420666f7220616c6c0000000000000000602082015250565b7f4552433732313a2062616c616e636520717565727920666f7220746865207a6560008201527f726f206164647265737300000000000000000000000000000000000000000000602082015250565b7f4552433732313a206f776e657220717565727920666f72206e6f6e657869737460008201527f656e7420746f6b656e0000000000000000000000000000000000000000000000602082015250565b7f4552433732313a206d696e7420746f20746865207a65726f2061646472657373600082015250565b7f4552433732313a20617070726f76656420717565727920666f72206e6f6e657860008201527f697374656e7420746f6b656e0000000000000000000000000000000000000000602082015250565b7f4552433732314d657461646174613a2055524920736574206f66206e6f6e657860008201527f697374656e7420746f6b656e0000000000000000000000000000000000000000602082015250565b7f4552433732313a207472616e73666572206f6620746f6b656e2074686174206960008201527f73206e6f74206f776e0000000000000000000000000000000000000000000000602082015250565b7f4552433732314d657461646174613a2055524920717565727920666f72206e6f60008201527f6e6578697374656e7420746f6b656e0000000000000000000000000000000000602082015250565b7f4552433732313a20617070726f76616c20746f2063757272656e74206f776e6560008201527f7200000000000000000000000000000000000000000000000000000000000000602082015250565b7f4552433732313a207472616e736665722063616c6c6572206973206e6f74206f60008201527f776e6572206e6f7220617070726f766564000000000000000000000000000000602082015250565b612b4d81612515565b8114612b5857600080fd5b50565b612b6481612527565b8114612b6f57600080fd5b50565b612b7b81612533565b8114612b8657600080fd5b50565b612b928161257f565b8114612b9d57600080fd5b5056fea26469706673582212207d29b2be5835fa95e0f4e102a97fe431ee4fc13e929f60fd4f9997badd326bcb64736f6c63430008040033",
  "devdoc": {
    "kind": "dev",
    "methods": {
      "approve(address,uint256)": {
        "details": "See {IERC721-approve}."
      },
      "balanceOf(address)": {
        "details": "See {IERC721-balanceOf}."
      },
      "getApproved(uint256)": {
        "details": "See {IERC721-getApproved}."
      },
      "isApprovedForAll(address,address)": {
        "details": "See {IERC721-isApprovedForAll}."
      },
      "name()": {
        "details": "See {IERC721Metadata-name}."
      },
      "ownerOf(uint256)": {
        "details": "See {IERC721-ownerOf}."
      },
      "safeTransferFrom(address,address,uint256)": {
        "details": "See {IERC721-safeTransferFrom}."
      },
      "safeTransferFrom(address,address,uint256,bytes)": {
        "details": "See {IERC721-safeTransferFrom}."
      },
      "setApprovalForAll(address,bool)": {
        "details": "See {IERC721-setApprovalForAll}."
      },
      "supportsInterface(bytes4)": {
        "details": "See {IERC165-supportsInterface}."
      },
      "symbol()": {
        "details": "See {IERC721Metadata-symbol}."
      },
      "tokenURI(uint256)": {
        "details": "See {IERC721Metadata-tokenURI}."
      },
      "transferFrom(address,address,uint256)": {
        "details": "See {IERC721-transferFrom}."
      }
    },
    "version": 1
  },
  "userdoc": {
    "kind": "user",
    "methods": {},
    "version": 1
  },
  "storageLayout": {
    "storage": [
      {
        "astId": 25,
        "contract": "contracts/MetisTube.sol:MetisTube",
        "label": "_name",
        "offset": 0,
        "slot": "0",
        "type": "t_string_storage"
      },
      {
        "astId": 27,
        "contract": "contracts/MetisTube.sol:MetisTube",
        "label": "_symbol",
        "offset": 0,
        "slot": "1",
        "type": "t_string_storage"
      },
      {
        "astId": 31,
        "contract": "contracts/MetisTube.sol:MetisTube",
        "label": "_owners",
        "offset": 0,
        "slot": "2",
        "type": "t_mapping(t_uint256,t_address)"
      },
      {
        "astId": 35,
        "contract": "contracts/MetisTube.sol:MetisTube",
        "label": "_balances",
        "offset": 0,
        "slot": "3",
        "type": "t_mapping(t_address,t_uint256)"
      },
      {
        "astId": 39,
        "contract": "contracts/MetisTube.sol:MetisTube",
        "label": "_tokenApprovals",
        "offset": 0,
        "slot": "4",
        "type": "t_mapping(t_uint256,t_address)"
      },
      {
        "astId": 45,
        "contract": "contracts/MetisTube.sol:MetisTube",
        "label": "_operatorApprovals",
        "offset": 0,
        "slot": "5",
        "type": "t_mapping(t_address,t_mapping(t_address,t_bool))"
      },
      {
        "astId": 1561,
        "contract": "contracts/MetisTube.sol:MetisTube",
        "label": "_tokenIds",
        "offset": 0,
        "slot": "6",
        "type": "t_uint256"
      },
      {
        "astId": 1565,
        "contract": "contracts/MetisTube.sol:MetisTube",
        "label": "_tokenURIs",
        "offset": 0,
        "slot": "7",
        "type": "t_mapping(t_uint256,t_string_storage)"
      },
      {
        "astId": 1570,
        "contract": "contracts/MetisTube.sol:MetisTube",
        "label": "tokenStatistics",
        "offset": 0,
        "slot": "8",
        "type": "t_mapping(t_uint256,t_struct(Statistic)1559_storage)"
      },
      {
        "astId": 1576,
        "contract": "contracts/MetisTube.sol:MetisTube",
        "label": "likes",
        "offset": 0,
        "slot": "9",
        "type": "t_mapping(t_uint256,t_mapping(t_address,t_bool))"
      },
      {
        "astId": 1582,
        "contract": "contracts/MetisTube.sol:MetisTube",
        "label": "dislikes",
        "offset": 0,
        "slot": "10",
        "type": "t_mapping(t_uint256,t_mapping(t_address,t_bool))"
      }
    ],
    "types": {
      "t_address": {
        "encoding": "inplace",
        "label": "address",
        "numberOfBytes": "20"
      },
      "t_bool": {
        "encoding": "inplace",
        "label": "bool",
        "numberOfBytes": "1"
      },
      "t_mapping(t_address,t_bool)": {
        "encoding": "mapping",
        "key": "t_address",
        "label": "mapping(address => bool)",
        "numberOfBytes": "32",
        "value": "t_bool"
      },
      "t_mapping(t_address,t_mapping(t_address,t_bool))": {
        "encoding": "mapping",
        "key": "t_address",
        "label": "mapping(address => mapping(address => bool))",
        "numberOfBytes": "32",
        "value": "t_mapping(t_address,t_bool)"
      },
      "t_mapping(t_address,t_uint256)": {
        "encoding": "mapping",
        "key": "t_address",
        "label": "mapping(address => uint256)",
        "numberOfBytes": "32",
        "value": "t_uint256"
      },
      "t_mapping(t_uint256,t_address)": {
        "encoding": "mapping",
        "key": "t_uint256",
        "label": "mapping(uint256 => address)",
        "numberOfBytes": "32",
        "value": "t_address"
      },
      "t_mapping(t_uint256,t_mapping(t_address,t_bool))": {
        "encoding": "mapping",
        "key": "t_uint256",
        "label": "mapping(uint256 => mapping(address => bool))",
        "numberOfBytes": "32",
        "value": "t_mapping(t_address,t_bool)"
      },
      "t_mapping(t_uint256,t_string_storage)": {
        "encoding": "mapping",
        "key": "t_uint256",
        "label": "mapping(uint256 => string)",
        "numberOfBytes": "32",
        "value": "t_string_storage"
      },
      "t_mapping(t_uint256,t_struct(Statistic)1559_storage)": {
        "encoding": "mapping",
        "key": "t_uint256",
        "label": "mapping(uint256 => struct MetisTube.Statistic)",
        "numberOfBytes": "32",
        "value": "t_struct(Statistic)1559_storage"
      },
      "t_string_storage": {
        "encoding": "bytes",
        "label": "string",
        "numberOfBytes": "32"
      },
      "t_struct(Statistic)1559_storage": {
        "encoding": "inplace",
        "label": "struct MetisTube.Statistic",
        "members": [
          {
            "astId": 1556,
            "contract": "contracts/MetisTube.sol:MetisTube",
            "label": "likes",
            "offset": 0,
            "slot": "0",
            "type": "t_uint256"
          },
          {
            "astId": 1558,
            "contract": "contracts/MetisTube.sol:MetisTube",
            "label": "dislikes",
            "offset": 0,
            "slot": "1",
            "type": "t_uint256"
          }
        ],
        "numberOfBytes": "64"
      },
      "t_uint256": {
        "encoding": "inplace",
        "label": "uint256",
        "numberOfBytes": "32"
      }
    }
  }
}