{
  "address": "0xEe25795fDbe6c14f898a59D92BF0268a9C424B5B",
  "abi": [
    {
      "inputs": [
        {
          "internalType": "string",
          "name": "name",
          "type": "string"
        },
        {
          "internalType": "string",
          "name": "symbol",
          "type": "string"
        }
      ],
      "stateMutability": "nonpayable",
      "type": "constructor"
    },
    {
      "anonymous": false,
      "inputs": [
        {
          "indexed": true,
          "internalType": "address",
          "name": "owner",
          "type": "address"
        },
        {
          "indexed": true,
          "internalType": "address",
          "name": "approved",
          "type": "address"
        },
        {
          "indexed": true,
          "internalType": "uint256",
          "name": "tokenId",
          "type": "uint256"
        }
      ],
      "name": "Approval",
      "type": "event"
    },
    {
      "anonymous": false,
      "inputs": [
        {
          "indexed": true,
          "internalType": "address",
          "name": "owner",
          "type": "address"
        },
        {
          "indexed": true,
          "internalType": "address",
          "name": "operator",
          "type": "address"
        },
        {
          "indexed": false,
          "internalType": "bool",
          "name": "approved",
          "type": "bool"
        }
      ],
      "name": "ApprovalForAll",
      "type": "event"
    },
    {
      "anonymous": false,
      "inputs": [
        {
          "indexed": true,
          "internalType": "address",
          "name": "from",
          "type": "address"
        },
        {
          "indexed": true,
          "internalType": "address",
          "name": "to",
          "type": "address"
        },
        {
          "indexed": true,
          "internalType": "uint256",
          "name": "tokenId",
          "type": "uint256"
        }
      ],
      "name": "Transfer",
      "type": "event"
    },
    {
      "inputs": [
        {
          "internalType": "address",
          "name": "to",
          "type": "address"
        },
        {
          "internalType": "uint256",
          "name": "tokenId",
          "type": "uint256"
        }
      ],
      "name": "approve",
      "outputs": [],
      "stateMutability": "nonpayable",
      "type": "function"
    },
    {
      "inputs": [
        {
          "internalType": "address",
          "name": "owner",
          "type": "address"
        }
      ],
      "name": "balanceOf",
      "outputs": [
        {
          "internalType": "uint256",
          "name": "",
          "type": "uint256"
        }
      ],
      "stateMutability": "view",
      "type": "function"
    },
    {
      "inputs": [
        {
          "internalType": "address",
          "name": "_claimer",
          "type": "address"
        },
        {
          "internalType": "string",
          "name": "_tokenURI",
          "type": "string"
        }
      ],
      "name": "claimToken",
      "outputs": [
        {
          "internalType": "uint256",
          "name": "",
          "type": "uint256"
        }
      ],
      "stateMutability": "nonpayable",
      "type": "function"
    },
    {
      "inputs": [
        {
          "internalType": "uint256",
          "name": "tokenId",
          "type": "uint256"
        }
      ],
      "name": "getApproved",
      "outputs": [
        {
          "internalType": "address",
          "name": "",
          "type": "address"
        }
      ],
      "stateMutability": "view",
      "type": "function"
    },
    {
      "inputs": [
        {
          "internalType": "address",
          "name": "owner",
          "type": "address"
        },
        {
          "internalType": "address",
          "name": "operator",
          "type": "address"
        }
      ],
      "name": "isApprovedForAll",
      "outputs": [
        {
          "internalType": "bool",
          "name": "",
          "type": "bool"
        }
      ],
      "stateMutability": "view",
      "type": "function"
    },
    {
      "inputs": [],
      "name": "name",
      "outputs": [
        {
          "internalType": "string",
          "name": "",
          "type": "string"
        }
      ],
      "stateMutability": "view",
      "type": "function"
    },
    {
      "inputs": [
        {
          "internalType": "uint256",
          "name": "tokenId",
          "type": "uint256"
        }
      ],
      "name": "ownerOf",
      "outputs": [
        {
          "internalType": "address",
          "name": "",
          "type": "address"
        }
      ],
      "stateMutability": "view",
      "type": "function"
    },
    {
      "inputs": [
        {
          "internalType": "address",
          "name": "from",
          "type": "address"
        },
        {
          "internalType": "address",
          "name": "to",
          "type": "address"
        },
        {
          "internalType": "uint256",
          "name": "tokenId",
          "type": "uint256"
        }
      ],
      "name": "safeTransferFrom",
      "outputs": [],
      "stateMutability": "nonpayable",
      "type": "function"
    },
    {
      "inputs": [
        {
          "internalType": "address",
          "name": "from",
          "type": "address"
        },
        {
          "internalType": "address",
          "name": "to",
          "type": "address"
        },
        {
          "internalType": "uint256",
          "name": "tokenId",
          "type": "uint256"
        },
        {
          "internalType": "bytes",
          "name": "_data",
          "type": "bytes"
        }
      ],
      "name": "safeTransferFrom",
      "outputs": [],
      "stateMutability": "nonpayable",
      "type": "function"
    },
    {
      "inputs": [
        {
          "internalType": "address",
          "name": "operator",
          "type": "address"
        },
        {
          "internalType": "bool",
          "name": "approved",
          "type": "bool"
        }
      ],
      "name": "setApprovalForAll",
      "outputs": [],
      "stateMutability": "nonpayable",
      "type": "function"
    },
    {
      "inputs": [
        {
          "internalType": "bytes4",
          "name": "interfaceId",
          "type": "bytes4"
        }
      ],
      "name": "supportsInterface",
      "outputs": [
        {
          "internalType": "bool",
          "name": "",
          "type": "bool"
        }
      ],
      "stateMutability": "view",
      "type": "function"
    },
    {
      "inputs": [],
      "name": "symbol",
      "outputs": [
        {
          "internalType": "string",
          "name": "",
          "type": "string"
        }
      ],
      "stateMutability": "view",
      "type": "function"
    },
    {
      "inputs": [
        {
          "internalType": "uint256",
          "name": "tokenId",
          "type": "uint256"
        }
      ],
      "name": "tokenURI",
      "outputs": [
        {
          "internalType": "string",
          "name": "",
          "type": "string"
        }
      ],
      "stateMutability": "view",
      "type": "function"
    },
    {
      "inputs": [],
      "name": "totalSupply",
      "outputs": [
        {
          "internalType": "uint256",
          "name": "",
          "type": "uint256"
        }
      ],
      "stateMutability": "view",
      "type": "function"
    },
    {
      "inputs": [
        {
          "internalType": "address",
          "name": "from",
          "type": "address"
        },
        {
          "internalType": "address",
          "name": "to",
          "type": "address"
        },
        {
          "internalType": "uint256",
          "name": "tokenId",
          "type": "uint256"
        }
      ],
      "name": "transferFrom",
      "outputs": [],
      "stateMutability": "nonpayable",
      "type": "function"
    }
  ],
  "transactionHash": "0x88ed83b14ea937e4cbf3c02167b8488bd98a64e3eb1a8c27f1e9409a2af67ba0",
  "args": [
    "MetisTube",
    "TUBE"
  ],
  "solcInputHash": "f3b76c441ce4aeb5fd62af5f44d0ef55",
  "bytecode": "0x60806040523480156200001157600080fd5b5060405162002ab938038062002ab9833981810160405281019062000037919062000197565b818181600090805190602001906200005192919062000075565b5080600190805190602001906200006a92919062000075565b50505050506200037a565b82805462000083906200029f565b90600052602060002090601f016020900481019282620000a75760008555620000f3565b82601f10620000c257805160ff1916838001178555620000f3565b82800160010185558215620000f3579182015b82811115620000f2578251825591602001919060010190620000d5565b5b50905062000102919062000106565b5090565b5b808211156200012157600081600090555060010162000107565b5090565b60006200013c620001368462000233565b6200020a565b9050828152602081018484840111156200015557600080fd5b6200016284828562000269565b509392505050565b600082601f8301126200017c57600080fd5b81516200018e84826020860162000125565b91505092915050565b60008060408385031215620001ab57600080fd5b600083015167ffffffffffffffff811115620001c657600080fd5b620001d4858286016200016a565b925050602083015167ffffffffffffffff811115620001f257600080fd5b62000200858286016200016a565b9150509250929050565b60006200021662000229565b9050620002248282620002d5565b919050565b6000604051905090565b600067ffffffffffffffff8211156200025157620002506200033a565b5b6200025c8262000369565b9050602081019050919050565b60005b83811015620002895780820151818401526020810190506200026c565b8381111562000299576000848401525b50505050565b60006002820490506001821680620002b857607f821691505b60208210811415620002cf57620002ce6200030b565b5b50919050565b620002e08262000369565b810181811067ffffffffffffffff821117156200030257620003016200033a565b5b80604052505050565b7f4e487b7100000000000000000000000000000000000000000000000000000000600052602260045260246000fd5b7f4e487b7100000000000000000000000000000000000000000000000000000000600052604160045260246000fd5b6000601f19601f8301169050919050565b61272f806200038a6000396000f3fe608060405234801561001057600080fd5b50600436106100f55760003560e01c80636352211e11610097578063a22cb46511610066578063a22cb46514610298578063b88d4fde146102b4578063c87b56dd146102d0578063e985e9c514610300576100f5565b80636352211e146101ea57806370a082311461021a578063931b33851461024a57806395d89b411461027a576100f5565b8063095ea7b3116100d3578063095ea7b31461017857806318160ddd1461019457806323b872dd146101b257806342842e0e146101ce576100f5565b806301ffc9a7146100fa57806306fdde031461012a578063081812fc14610148575b600080fd5b610114600480360381019061010f919061195f565b610330565b6040516101219190611ced565b60405180910390f35b610132610412565b60405161013f9190611d08565b60405180910390f35b610162600480360381019061015d91906119b1565b6104a4565b60405161016f9190611c86565b60405180910390f35b610192600480360381019061018d9190611923565b610529565b005b61019c610641565b6040516101a99190611f0a565b60405180910390f35b6101cc60048036038101906101c791906117c9565b61064b565b005b6101e860048036038101906101e391906117c9565b6106ab565b005b61020460048036038101906101ff91906119b1565b6106cb565b6040516102119190611c86565b60405180910390f35b610234600480360381019061022f9190611764565b61077d565b6040516102419190611f0a565b60405180910390f35b610264600480360381019061025f91906118cf565b610835565b6040516102719190611f0a565b60405180910390f35b610282610872565b60405161028f9190611d08565b60405180910390f35b6102b260048036038101906102ad9190611893565b610904565b005b6102ce60048036038101906102c99190611818565b61091a565b005b6102ea60048036038101906102e591906119b1565b61097c565b6040516102f79190611d08565b60405180910390f35b61031a6004803603810190610315919061178d565b610a69565b6040516103279190611ced565b60405180910390f35b60007f80ac58cd000000000000000000000000000000000000000000000000000000007bffffffffffffffffffffffffffffffffffffffffffffffffffffffff1916827bffffffffffffffffffffffffffffffffffffffffffffffffffffffff191614806103fb57507f5b5e139f000000000000000000000000000000000000000000000000000000007bffffffffffffffffffffffffffffffffffffffffffffffffffffffff1916827bffffffffffffffffffffffffffffffffffffffffffffffffffffffff1916145b8061040b575061040a82610afd565b5b9050919050565b60606000805461042190612124565b80601f016020809104026020016040519081016040528092919081815260200182805461044d90612124565b801561049a5780601f1061046f5761010080835404028352916020019161049a565b820191906000526020600020905b81548152906001019060200180831161047d57829003601f168201915b5050505050905090565b60006104af82610b67565b6104ee576040517f08c379a00000000000000000000000000000000000000000000000000000000081526004016104e590611e4a565b60405180910390fd5b6004600083815260200190815260200160002060009054906101000a900473ffffffffffffffffffffffffffffffffffffffff169050919050565b6000610534826106cb565b90508073ffffffffffffffffffffffffffffffffffffffff168373ffffffffffffffffffffffffffffffffffffffff1614156105a5576040517f08c379a000000000000000000000000000000000000000000000000000000000815260040161059c90611eca565b60405180910390fd5b8073ffffffffffffffffffffffffffffffffffffffff166105c4610bd3565b73ffffffffffffffffffffffffffffffffffffffff1614806105f357506105f2816105ed610bd3565b610a69565b5b610632576040517f08c379a000000000000000000000000000000000000000000000000000000000815260040161062990611dca565b60405180910390fd5b61063c8383610bdb565b505050565b6000600654905090565b61065c610656610bd3565b82610c94565b61069b576040517f08c379a000000000000000000000000000000000000000000000000000000000815260040161069290611eea565b60405180910390fd5b6106a6838383610d72565b505050565b6106c68383836040518060200160405280600081525061091a565b505050565b6000806002600084815260200190815260200160002060009054906101000a900473ffffffffffffffffffffffffffffffffffffffff169050600073ffffffffffffffffffffffffffffffffffffffff168173ffffffffffffffffffffffffffffffffffffffff161415610774576040517f08c379a000000000000000000000000000000000000000000000000000000000815260040161076b90611e0a565b60405180910390fd5b80915050919050565b60008073ffffffffffffffffffffffffffffffffffffffff168273ffffffffffffffffffffffffffffffffffffffff1614156107ee576040517f08c379a00000000000000000000000000000000000000000000000000000000081526004016107e590611dea565b60405180910390fd5b600360008373ffffffffffffffffffffffffffffffffffffffff1673ffffffffffffffffffffffffffffffffffffffff168152602001908152602001600020549050919050565b600061084383600654610fce565b61084f6006548361119c565b6006600081548092919061086290612187565b9190505550600654905092915050565b60606001805461088190612124565b80601f01602080910402602001604051908101604052809291908181526020018280546108ad90612124565b80156108fa5780601f106108cf576101008083540402835291602001916108fa565b820191906000526020600020905b8154815290600101906020018083116108dd57829003601f168201915b5050505050905090565b61091661090f610bd3565b8383611210565b5050565b61092b610925610bd3565b83610c94565b61096a576040517f08c379a000000000000000000000000000000000000000000000000000000000815260040161096190611eea565b60405180910390fd5b6109768484848461137d565b50505050565b606061098782610b67565b6109c6576040517f08c379a00000000000000000000000000000000000000000000000000000000081526004016109bd90611eaa565b60405180910390fd5b6007600083815260200190815260200160002080546109e490612124565b80601f0160208091040260200160405190810160405280929190818152602001828054610a1090612124565b8015610a5d5780601f10610a3257610100808354040283529160200191610a5d565b820191906000526020600020905b815481529060010190602001808311610a4057829003601f168201915b50505050509050919050565b6000600560008473ffffffffffffffffffffffffffffffffffffffff1673ffffffffffffffffffffffffffffffffffffffff16815260200190815260200160002060008373ffffffffffffffffffffffffffffffffffffffff1673ffffffffffffffffffffffffffffffffffffffff16815260200190815260200160002060009054906101000a900460ff16905092915050565b60007f01ffc9a7000000000000000000000000000000000000000000000000000000007bffffffffffffffffffffffffffffffffffffffffffffffffffffffff1916827bffffffffffffffffffffffffffffffffffffffffffffffffffffffff1916149050919050565b60008073ffffffffffffffffffffffffffffffffffffffff166002600084815260200190815260200160002060009054906101000a900473ffffffffffffffffffffffffffffffffffffffff1673ffffffffffffffffffffffffffffffffffffffff1614159050919050565b600033905090565b816004600083815260200190815260200160002060006101000a81548173ffffffffffffffffffffffffffffffffffffffff021916908373ffffffffffffffffffffffffffffffffffffffff160217905550808273ffffffffffffffffffffffffffffffffffffffff16610c4e836106cb565b73ffffffffffffffffffffffffffffffffffffffff167f8c5be1e5ebec7d5bd14f71427d1e84f3dd0314c0f7b2291e5b200ac8c7c3b92560405160405180910390a45050565b6000610c9f82610b67565b610cde576040517f08c379a0000000000000000000000000000000000000000000000000000000008152600401610cd590611daa565b60405180910390fd5b6000610ce9836106cb565b90508073ffffffffffffffffffffffffffffffffffffffff168473ffffffffffffffffffffffffffffffffffffffff161480610d5857508373ffffffffffffffffffffffffffffffffffffffff16610d40846104a4565b73ffffffffffffffffffffffffffffffffffffffff16145b80610d695750610d688185610a69565b5b91505092915050565b8273ffffffffffffffffffffffffffffffffffffffff16610d92826106cb565b73ffffffffffffffffffffffffffffffffffffffff1614610de8576040517f08c379a0000000000000000000000000000000000000000000000000000000008152600401610ddf90611e8a565b60405180910390fd5b600073ffffffffffffffffffffffffffffffffffffffff168273ffffffffffffffffffffffffffffffffffffffff161415610e58576040517f08c379a0000000000000000000000000000000000000000000000000000000008152600401610e4f90611d6a565b60405180910390fd5b610e638383836113d9565b610e6e600082610bdb565b6001600360008573ffffffffffffffffffffffffffffffffffffffff1673ffffffffffffffffffffffffffffffffffffffff1681526020019081526020016000206000828254610ebe919061203a565b925050819055506001600360008473ffffffffffffffffffffffffffffffffffffffff1673ffffffffffffffffffffffffffffffffffffffff1681526020019081526020016000206000828254610f159190611fe4565b92505081905550816002600083815260200190815260200160002060006101000a81548173ffffffffffffffffffffffffffffffffffffffff021916908373ffffffffffffffffffffffffffffffffffffffff160217905550808273ffffffffffffffffffffffffffffffffffffffff168473ffffffffffffffffffffffffffffffffffffffff167fddf252ad1be2c89b69c2b068fc378daa952ba7f163c4a11628f55a4df523b3ef60405160405180910390a4505050565b600073ffffffffffffffffffffffffffffffffffffffff168273ffffffffffffffffffffffffffffffffffffffff16141561103e576040517f08c379a000000000000000000000000000000000000000000000000000000000815260040161103590611e2a565b60405180910390fd5b61104781610b67565b15611087576040517f08c379a000000000000000000000000000000000000000000000000000000000815260040161107e90611d4a565b60405180910390fd5b611093600083836113d9565b6001600360008473ffffffffffffffffffffffffffffffffffffffff1673ffffffffffffffffffffffffffffffffffffffff16815260200190815260200160002060008282546110e39190611fe4565b92505081905550816002600083815260200190815260200160002060006101000a81548173ffffffffffffffffffffffffffffffffffffffff021916908373ffffffffffffffffffffffffffffffffffffffff160217905550808273ffffffffffffffffffffffffffffffffffffffff16600073ffffffffffffffffffffffffffffffffffffffff167fddf252ad1be2c89b69c2b068fc378daa952ba7f163c4a11628f55a4df523b3ef60405160405180910390a45050565b6111a582610b67565b6111e4576040517f08c379a00000000000000000000000000000000000000000000000000000000081526004016111db90611e6a565b60405180910390fd5b8060076000848152602001908152602001600020908051906020019061120b929190611588565b505050565b8173ffffffffffffffffffffffffffffffffffffffff168373ffffffffffffffffffffffffffffffffffffffff16141561127f576040517f08c379a000000000000000000000000000000000000000000000000000000000815260040161127690611d8a565b60405180910390fd5b80600560008573ffffffffffffffffffffffffffffffffffffffff1673ffffffffffffffffffffffffffffffffffffffff16815260200190815260200160002060008473ffffffffffffffffffffffffffffffffffffffff1673ffffffffffffffffffffffffffffffffffffffff16815260200190815260200160002060006101000a81548160ff0219169083151502179055508173ffffffffffffffffffffffffffffffffffffffff168373ffffffffffffffffffffffffffffffffffffffff167f17307eab39ab6107e8899845ad3d59bd9653f200f220920489ca2b5937696c31836040516113709190611ced565b60405180910390a3505050565b611388848484610d72565b611394848484846113de565b6113d3576040517f08c379a00000000000000000000000000000000000000000000000000000000081526004016113ca90611d2a565b60405180910390fd5b50505050565b505050565b60006113ff8473ffffffffffffffffffffffffffffffffffffffff16611575565b15611568578373ffffffffffffffffffffffffffffffffffffffff1663150b7a02611428610bd3565b8786866040518563ffffffff1660e01b815260040161144a9493929190611ca1565b602060405180830381600087803b15801561146457600080fd5b505af192505050801561149557506040513d601f19601f820116820180604052508101906114929190611988565b60015b611518573d80600081146114c5576040519150601f19603f3d011682016040523d82523d6000602084013e6114ca565b606091505b50600081511415611510576040517f08c379a000000000000000000000000000000000000000000000000000000000815260040161150790611d2a565b60405180910390fd5b805181602001fd5b63150b7a0260e01b7bffffffffffffffffffffffffffffffffffffffffffffffffffffffff1916817bffffffffffffffffffffffffffffffffffffffffffffffffffffffff19161491505061156d565b600190505b949350505050565b600080823b905060008111915050919050565b82805461159490612124565b90600052602060002090601f0160209004810192826115b657600085556115fd565b82601f106115cf57805160ff19168380011785556115fd565b828001600101855582156115fd579182015b828111156115fc5782518255916020019190600101906115e1565b5b50905061160a919061160e565b5090565b5b8082111561162757600081600090555060010161160f565b5090565b600061163e61163984611f4a565b611f25565b90508281526020810184848401111561165657600080fd5b6116618482856120e2565b509392505050565b600061167c61167784611f7b565b611f25565b90508281526020810184848401111561169457600080fd5b61169f8482856120e2565b509392505050565b6000813590506116b68161269d565b92915050565b6000813590506116cb816126b4565b92915050565b6000813590506116e0816126cb565b92915050565b6000815190506116f5816126cb565b92915050565b600082601f83011261170c57600080fd5b813561171c84826020860161162b565b91505092915050565b600082601f83011261173657600080fd5b8135611746848260208601611669565b91505092915050565b60008135905061175e816126e2565b92915050565b60006020828403121561177657600080fd5b6000611784848285016116a7565b91505092915050565b600080604083850312156117a057600080fd5b60006117ae858286016116a7565b92505060206117bf858286016116a7565b9150509250929050565b6000806000606084860312156117de57600080fd5b60006117ec868287016116a7565b93505060206117fd868287016116a7565b925050604061180e8682870161174f565b9150509250925092565b6000806000806080858703121561182e57600080fd5b600061183c878288016116a7565b945050602061184d878288016116a7565b935050604061185e8782880161174f565b925050606085013567ffffffffffffffff81111561187b57600080fd5b611887878288016116fb565b91505092959194509250565b600080604083850312156118a657600080fd5b60006118b4858286016116a7565b92505060206118c5858286016116bc565b9150509250929050565b600080604083850312156118e257600080fd5b60006118f0858286016116a7565b925050602083013567ffffffffffffffff81111561190d57600080fd5b61191985828601611725565b9150509250929050565b6000806040838503121561193657600080fd5b6000611944858286016116a7565b92505060206119558582860161174f565b9150509250929050565b60006020828403121561197157600080fd5b600061197f848285016116d1565b91505092915050565b60006020828403121561199a57600080fd5b60006119a8848285016116e6565b91505092915050565b6000602082840312156119c357600080fd5b60006119d18482850161174f565b91505092915050565b6119e38161206e565b82525050565b6119f281612080565b82525050565b6000611a0382611fac565b611a0d8185611fc2565b9350611a1d8185602086016120f1565b611a268161225d565b840191505092915050565b6000611a3c82611fb7565b611a468185611fd3565b9350611a568185602086016120f1565b611a5f8161225d565b840191505092915050565b6000611a77603283611fd3565b9150611a828261226e565b604082019050919050565b6000611a9a601c83611fd3565b9150611aa5826122bd565b602082019050919050565b6000611abd602483611fd3565b9150611ac8826122e6565b604082019050919050565b6000611ae0601983611fd3565b9150611aeb82612335565b602082019050919050565b6000611b03602c83611fd3565b9150611b0e8261235e565b604082019050919050565b6000611b26603883611fd3565b9150611b31826123ad565b604082019050919050565b6000611b49602a83611fd3565b9150611b54826123fc565b604082019050919050565b6000611b6c602983611fd3565b9150611b778261244b565b604082019050919050565b6000611b8f602083611fd3565b9150611b9a8261249a565b602082019050919050565b6000611bb2602c83611fd3565b9150611bbd826124c3565b604082019050919050565b6000611bd5602c83611fd3565b9150611be082612512565b604082019050919050565b6000611bf8602983611fd3565b9150611c0382612561565b604082019050919050565b6000611c1b602f83611fd3565b9150611c26826125b0565b604082019050919050565b6000611c3e602183611fd3565b9150611c49826125ff565b604082019050919050565b6000611c61603183611fd3565b9150611c6c8261264e565b604082019050919050565b611c80816120d8565b82525050565b6000602082019050611c9b60008301846119da565b92915050565b6000608082019050611cb660008301876119da565b611cc360208301866119da565b611cd06040830185611c77565b8181036060830152611ce281846119f8565b905095945050505050565b6000602082019050611d0260008301846119e9565b92915050565b60006020820190508181036000830152611d228184611a31565b905092915050565b60006020820190508181036000830152611d4381611a6a565b9050919050565b60006020820190508181036000830152611d6381611a8d565b9050919050565b60006020820190508181036000830152611d8381611ab0565b9050919050565b60006020820190508181036000830152611da381611ad3565b9050919050565b60006020820190508181036000830152611dc381611af6565b9050919050565b60006020820190508181036000830152611de381611b19565b9050919050565b60006020820190508181036000830152611e0381611b3c565b9050919050565b60006020820190508181036000830152611e2381611b5f565b9050919050565b60006020820190508181036000830152611e4381611b82565b9050919050565b60006020820190508181036000830152611e6381611ba5565b9050919050565b60006020820190508181036000830152611e8381611bc8565b9050919050565b60006020820190508181036000830152611ea381611beb565b9050919050565b60006020820190508181036000830152611ec381611c0e565b9050919050565b60006020820190508181036000830152611ee381611c31565b9050919050565b60006020820190508181036000830152611f0381611c54565b9050919050565b6000602082019050611f1f6000830184611c77565b92915050565b6000611f2f611f40565b9050611f3b8282612156565b919050565b6000604051905090565b600067ffffffffffffffff821115611f6557611f6461222e565b5b611f6e8261225d565b9050602081019050919050565b600067ffffffffffffffff821115611f9657611f9561222e565b5b611f9f8261225d565b9050602081019050919050565b600081519050919050565b600081519050919050565b600082825260208201905092915050565b600082825260208201905092915050565b6000611fef826120d8565b9150611ffa836120d8565b9250827fffffffffffffffffffffffffffffffffffffffffffffffffffffffffffffffff0382111561202f5761202e6121d0565b5b828201905092915050565b6000612045826120d8565b9150612050836120d8565b925082821015612063576120626121d0565b5b828203905092915050565b6000612079826120b8565b9050919050565b60008115159050919050565b60007fffffffff0000000000000000000000000000000000000000000000000000000082169050919050565b600073ffffffffffffffffffffffffffffffffffffffff82169050919050565b6000819050919050565b82818337600083830152505050565b60005b8381101561210f5780820151818401526020810190506120f4565b8381111561211e576000848401525b50505050565b6000600282049050600182168061213c57607f821691505b602082108114156121505761214f6121ff565b5b50919050565b61215f8261225d565b810181811067ffffffffffffffff8211171561217e5761217d61222e565b5b80604052505050565b6000612192826120d8565b91507fffffffffffffffffffffffffffffffffffffffffffffffffffffffffffffffff8214156121c5576121c46121d0565b5b600182019050919050565b7f4e487b7100000000000000000000000000000000000000000000000000000000600052601160045260246000fd5b7f4e487b7100000000000000000000000000000000000000000000000000000000600052602260045260246000fd5b7f4e487b7100000000000000000000000000000000000000000000000000000000600052604160045260246000fd5b6000601f19601f8301169050919050565b7f4552433732313a207472616e7366657220746f206e6f6e20455243373231526560008201527f63656976657220696d706c656d656e7465720000000000000000000000000000602082015250565b7f4552433732313a20746f6b656e20616c7265616479206d696e74656400000000600082015250565b7f4552433732313a207472616e7366657220746f20746865207a65726f2061646460008201527f7265737300000000000000000000000000000000000000000000000000000000602082015250565b7f4552433732313a20617070726f766520746f2063616c6c657200000000000000600082015250565b7f4552433732313a206f70657261746f7220717565727920666f72206e6f6e657860008201527f697374656e7420746f6b656e0000000000000000000000000000000000000000602082015250565b7f4552433732313a20617070726f76652063616c6c6572206973206e6f74206f7760008201527f6e6572206e6f7220617070726f76656420666f7220616c6c0000000000000000602082015250565b7f4552433732313a2062616c616e636520717565727920666f7220746865207a6560008201527f726f206164647265737300000000000000000000000000000000000000000000602082015250565b7f4552433732313a206f776e657220717565727920666f72206e6f6e657869737460008201527f656e7420746f6b656e0000000000000000000000000000000000000000000000602082015250565b7f4552433732313a206d696e7420746f20746865207a65726f2061646472657373600082015250565b7f4552433732313a20617070726f76656420717565727920666f72206e6f6e657860008201527f697374656e7420746f6b656e0000000000000000000000000000000000000000602082015250565b7f4552433732314d657461646174613a2055524920736574206f66206e6f6e657860008201527f697374656e7420746f6b656e0000000000000000000000000000000000000000602082015250565b7f4552433732313a207472616e73666572206f6620746f6b656e2074686174206960008201527f73206e6f74206f776e0000000000000000000000000000000000000000000000602082015250565b7f4552433732314d657461646174613a2055524920717565727920666f72206e6f60008201527f6e6578697374656e7420746f6b656e0000000000000000000000000000000000602082015250565b7f4552433732313a20617070726f76616c20746f2063757272656e74206f776e6560008201527f7200000000000000000000000000000000000000000000000000000000000000602082015250565b7f4552433732313a207472616e736665722063616c6c6572206973206e6f74206f60008201527f776e6572206e6f7220617070726f766564000000000000000000000000000000602082015250565b6126a68161206e565b81146126b157600080fd5b50565b6126bd81612080565b81146126c857600080fd5b50565b6126d48161208c565b81146126df57600080fd5b50565b6126eb816120d8565b81146126f657600080fd5b5056fea2646970667358221220220aaf9da302093bfc406132b48b65298478d5a8ac0cb35b7b780950ce6ed58264736f6c63430008040033",
  "devdoc": {
    "kind": "dev",
    "methods": {
      "approve(address,uint256)": {
        "details": "See {IERC721-approve}."
      },
      "balanceOf(address)": {
        "details": "See {IERC721-balanceOf}."
      },
      "getApproved(uint256)": {
        "details": "See {IERC721-getApproved}."
      },
      "isApprovedForAll(address,address)": {
        "details": "See {IERC721-isApprovedForAll}."
      },
      "name()": {
        "details": "See {IERC721Metadata-name}."
      },
      "ownerOf(uint256)": {
        "details": "See {IERC721-ownerOf}."
      },
      "safeTransferFrom(address,address,uint256)": {
        "details": "See {IERC721-safeTransferFrom}."
      },
      "safeTransferFrom(address,address,uint256,bytes)": {
        "details": "See {IERC721-safeTransferFrom}."
      },
      "setApprovalForAll(address,bool)": {
        "details": "See {IERC721-setApprovalForAll}."
      },
      "supportsInterface(bytes4)": {
        "details": "See {IERC165-supportsInterface}."
      },
      "symbol()": {
        "details": "See {IERC721Metadata-symbol}."
      },
      "tokenURI(uint256)": {
        "details": "See {IERC721Metadata-tokenURI}."
      },
      "transferFrom(address,address,uint256)": {
        "details": "See {IERC721-transferFrom}."
      }
    },
    "version": 1
  },
  "userdoc": {
    "kind": "user",
    "methods": {},
    "version": 1
  },
  "storageLayout": {
    "storage": [
      {
        "astId": 25,
        "contract": "contracts/MetisTube.sol:MetisTube",
        "label": "_name",
        "offset": 0,
        "slot": "0",
        "type": "t_string_storage"
      },
      {
        "astId": 27,
        "contract": "contracts/MetisTube.sol:MetisTube",
        "label": "_symbol",
        "offset": 0,
        "slot": "1",
        "type": "t_string_storage"
      },
      {
        "astId": 31,
        "contract": "contracts/MetisTube.sol:MetisTube",
        "label": "_owners",
        "offset": 0,
        "slot": "2",
        "type": "t_mapping(t_uint256,t_address)"
      },
      {
        "astId": 35,
        "contract": "contracts/MetisTube.sol:MetisTube",
        "label": "_balances",
        "offset": 0,
        "slot": "3",
        "type": "t_mapping(t_address,t_uint256)"
      },
      {
        "astId": 39,
        "contract": "contracts/MetisTube.sol:MetisTube",
        "label": "_tokenApprovals",
        "offset": 0,
        "slot": "4",
        "type": "t_mapping(t_uint256,t_address)"
      },
      {
        "astId": 45,
        "contract": "contracts/MetisTube.sol:MetisTube",
        "label": "_operatorApprovals",
        "offset": 0,
        "slot": "5",
        "type": "t_mapping(t_address,t_mapping(t_address,t_bool))"
      },
      {
        "astId": 1556,
        "contract": "contracts/MetisTube.sol:MetisTube",
        "label": "_tokenIds",
        "offset": 0,
        "slot": "6",
        "type": "t_uint256"
      },
      {
        "astId": 1560,
        "contract": "contracts/MetisTube.sol:MetisTube",
        "label": "_tokenURIs",
        "offset": 0,
        "slot": "7",
        "type": "t_mapping(t_uint256,t_string_storage)"
      }
    ],
    "types": {
      "t_address": {
        "encoding": "inplace",
        "label": "address",
        "numberOfBytes": "20"
      },
      "t_bool": {
        "encoding": "inplace",
        "label": "bool",
        "numberOfBytes": "1"
      },
      "t_mapping(t_address,t_bool)": {
        "encoding": "mapping",
        "key": "t_address",
        "label": "mapping(address => bool)",
        "numberOfBytes": "32",
        "value": "t_bool"
      },
      "t_mapping(t_address,t_mapping(t_address,t_bool))": {
        "encoding": "mapping",
        "key": "t_address",
        "label": "mapping(address => mapping(address => bool))",
        "numberOfBytes": "32",
        "value": "t_mapping(t_address,t_bool)"
      },
      "t_mapping(t_address,t_uint256)": {
        "encoding": "mapping",
        "key": "t_address",
        "label": "mapping(address => uint256)",
        "numberOfBytes": "32",
        "value": "t_uint256"
      },
      "t_mapping(t_uint256,t_address)": {
        "encoding": "mapping",
        "key": "t_uint256",
        "label": "mapping(uint256 => address)",
        "numberOfBytes": "32",
        "value": "t_address"
      },
      "t_mapping(t_uint256,t_string_storage)": {
        "encoding": "mapping",
        "key": "t_uint256",
        "label": "mapping(uint256 => string)",
        "numberOfBytes": "32",
        "value": "t_string_storage"
      },
      "t_string_storage": {
        "encoding": "bytes",
        "label": "string",
        "numberOfBytes": "32"
      },
      "t_uint256": {
        "encoding": "inplace",
        "label": "uint256",
        "numberOfBytes": "32"
      }
    }
  }
}